:100000000C9428010C9459010C9459010C94590139
:100010000C9459010C9459010C9459010C945901F8
:100020000C9459010C9459010C9459010C945901E8
:100030000C9459010C9459010C9459010C945901D8
:100040000C9459010C9459010C9459010C945901C8
:100050000C9459010C9459010C9459010C94B70358
:100060000C9459010C942B040C9401040C94590128
:100070000C9459010C9459010C9459010C94590198
:100080000C9459010C9459010C9459010C94590188
:100090000C9459010C9459010C9459010C94590178
:1000A0000C9459010C9459010C9459010C94590168
:1000B0000C9459010C9459010C9459010C94590158
:1000C0000C9459010C9459010C9459010C94590148
:1000D0000C9459010C9459010C9459010C94590138
:1000E0000C9459010C9441030C946A030C944E0334
:1000F0000C94B6010C949D020C9462030C944A0378
:100100000C9450020C9466030C945C030C943D0315
:100110000C940A020C9439030C947A010C94740325
:100120000C9458030C9454030C9423030C9418025D
:100130000C9444030C941E030C94AD060C943503EC
:100140000C9470030C94A70100000A0B02090C0D1B
:100150000E0807030401000000000000000000007A
:10016000000000000000000000000000000000008F
:10017000000000001211100000000000000000004C
:10018000000000000000000000000000000000006F
:100190002200250028002B002E003100340002012F
:1001A0000000050108010B010000210024002700C8
:1001B0002A002D0030003300010100000401070176
:1001C0000A010505050507050808080802020202DC
:1001D0000A0A0808040404040101010101010101E3
:1001E0000303030303030303040707070C0C0C0CAE
:1001F0000C0C0C0C02020202060606060606060697
:100200000B0B0B0B0B0B0B0B010210202008081023
:100210002040102040800201020108040201010276
:10022000040810204080804020100804020180044F
:1002300002018040201008040201080402010102AA
:100240000408102040800102040810204080AD0600
:1002500011241FBECFEFD1E2DEBFCDBF00E00CBF47
:1002600023E0A0E8B2E001C01D92AA32B207E1F794
:1002700012E0A0E0B2E0E6E0F2E100E00BBF02C075
:1002800007900D92A038B107D9F711E0C8E2D1E08C
:1002900000E006C021970109802FFE010E94DA06C6
:1002A000C732D10780E00807A9F70E9461040C94C7
:1002B00001090C94000090E0FC01E85FFD4F2491DF
:1002C0008E539E4FFC018491882399F090E0880F13
:1002D000991FFC01E855FE4FA591B491FC01E2572E
:1002E000FE4F859194918FB7F894EC91E22BEC93AB
:1002F0008FBF0895AF92BF92CF92DF92EF92FF929D
:100300000F931F93CF93DF936C017B018B01040F3D
:10031000151FEB015E01AE18BF08C017D10759F0D9
:100320006991D601ED91FC910190F081E02DC6011B
:100330001995892B79F7C501DF91CF911F910F9105
:10034000FF90EF90DF90CF90BF90AF900895FC01A9
:10035000538D448D252F30E0842F90E0821B930B2A
:10036000541710F0CF96089501970895FC01918DD0
:10037000828D981761F0A28DAE0FBF2FB11D5D96D3
:100380008C91928D9F5F9F73928F90E008958FEF75
:100390009FEF08952FB7F89480918502909186027F
:1003A000A0918702B09188022FBF80939102909311
:1003B0009202A0939302B093940289E892E00E9483
:1003C000B60197FF26C02FB7F894809185029091CF
:1003D0008602A0918702B09188022FBF40919102BE
:1003E000509192026091930270919402841B950B3C
:1003F000A60BB70B40918D0250918E0260918F0237
:100400007091900284179507A607B707B0F28FEF97
:100410009FEF0895FC01918D828D981731F0828DA8
:10042000E80FF11D858D90E008958FEF9FEF0895FF
:10043000FC01918D228D892F90E0805C9F4F821B63
:1004400091098F739927089589E892E00E94180214
:1004500021E0892B09F420E0822F0895FC01A48D6E
:10046000A80FB92FB11DA35ABF4F2C91848D90E0D6
:1004700001968F739927848FA689B7892C93A089B9
:10048000B1898C91837080648C93938D848D981343
:1004900006C00288F389E02D80818F7D80830895D6
:1004A000EF92FF920F931F93CF93DF93EC0181E0C4
:1004B000888F9B8D8C8D98131AC0E889F98980816B
:1004C00085FF15C09FB7F894EE89FF896083E8899E
:1004D000F98980818370806480839FBF81E090E090
:1004E000DF91CF911F910F91FF90EF900895F62E1D
:1004F0000B8D10E00F5F1F4F0F731127E02E8C8DB7
:100500008E110CC00FB607FCFACFE889F9898081FB
:1005100085FFF5CFCE010E942E02F1CFEB8DEC0FBF
:10052000FD2FF11DE35AFF4FF0829FB7F8940B8F18
:10053000EA89FB8980818062CFCFCF93DF93EC0182
:10054000888D8823B9F0AA89BB89E889F9898C91BB
:1005500085FD03C0808186FD0DC00FB607FCF7CF77
:100560008C9185FFF2CF808185FFEDCFCE010E9477
:100570002E02E9CFDF91CF91089580E090E0892BA2
:1005800029F00E94240281110E94000080E090E086
:10059000892B49F080E090E0892B29F00E9400002F
:1005A00081110E94000080E090E0892B49F080E0FA
:1005B00090E0892B29F00E94000081110E94000028
:1005C00080E090E0892B49F080E090E0892B29F0D1
:1005D0000E94000081110C9400000895282F30E043
:1005E000F901E85BFE4F9491F901E85FFD4F4491FA
:1005F0002E533E4FF9012491222309F435C099234B
:1006000011F191509231F8F4E92FF0E08827E45F7E
:10061000FC4F8F4F0C94DA063D0341031E03350354
:100620003903230344034A034E03540358035C0372
:100630006203660323036A037003740380918000DE
:100640008F7780938000E22FF0E0EE0FFF1FE257DC
:10065000FE4FA591B4918FB7F894EC91611148C009
:1006600040954E234C938FBF0895809180008F7DDD
:10067000E8CF80918000877FE4CF84B58F7784BDF9
:10068000E2CF84B58F7DFBCF8091B0008F778093D0
:10069000B000D9CF8091B0008F7DF9CF80919000CC
:1006A0008F7780939000CFCF809190008F7DF9CF8E
:1006B00080919000877FF5CF8091A0008F77809305
:1006C000A000C1CF8091A0008F7DF9CF8091A000C4
:1006D000877FF5CF809120018F7780932001B3CF62
:1006E000809120018F7DF9CF80912001877FF5CF08
:1006F0004E2BB8CFFC0124813581232B39F421E026
:10070000FB018081882349F020E007C0808191812E
:100710000E94F10821E0892BB9F7822F08950F93E9
:100720001F93CF93DF93EC0188819981009759F053
:100730002A813B812617370730F081E0DF91CF9186
:100740001F910F9108958B016F5F7F4F0E940708E3
:10075000009759F0998388831B830A832C813D81FC
:10076000232B59F7FC011082E8CF80E0E7CF1F92DE
:100770000F920FB60F9211242F933F938F939F9355
:10078000AF93BF938091850290918602A0918702DA
:10079000B09188023091840223E0230F2D3758F561
:1007A0000196A11DB11D2093840280938502909330
:1007B0008602A0938702B093880280918002909174
:1007C0008102A0918202B09183020196A11DB11D08
:1007D0008093800290938102A0938202B09383025F
:1007E000BF91AF919F918F913F912F910F900FBE2D
:1007F0000F901F90189526E8230F0296A11DB11D9A
:10080000D2CF1F920F920FB60F9211240BB60F92F8
:100810002F933F934F935F936F937F938F939F9308
:10082000AF93BF93EF93FF9389E892E00E942E026B
:10083000FF91EF91BF91AF919F918F917F916F91B8
:100840005F914F913F912F910F900BBE0F900FBE74
:100850000F901F9018951F920F920FB60F921124B0
:100860000BB60F922F938F939F93EF93FF93E0918B
:100870009902F0919A028081E0919F02F091A0028A
:1008800082FD1DC090818091A2028F5F8F732091A5
:10089000A302821741F0E091A202F0E0E757FD4F7A
:1008A000958F8093A202FF91EF919F918F912F914D
:1008B0000F900BBE0F900FBE0F901F901895808168
:1008C000F2CFCF93DF9300D000D01F921F92CDB70D
:1008D000DEB7789484B5826084BD84B5816084BDC0
:1008E00085B5826085BD85B5816085BD80916E00CE
:1008F000816080936E0010928100809181008260FF
:10090000809381008091810081608093810080913B
:1009100080008160809380008091B100846080932A
:10092000B1008091B00081608093B000809191000F
:10093000826080939100809191008160809391000A
:10094000809190008160809390008091A1008260EE
:100950008093A1008091A10081608093A10080918B
:10096000A00081608093A00080912101826080932B
:1009700021018091210181608093210180912001DA
:1009800081608093200180917A00846080937A0056
:1009900080917A00826080937A0080917A008160F1
:1009A00080937A0080917A00806880937A00109218
:1009B000C100E0919902F0919A0282E08083E09177
:1009C0009502F09196021082E0919702F0919802C0
:1009D0008FEC80831092A102E0919D02F0919E0223
:1009E00086E08083E0919B02F0919C02808180618F
:1009F0008083E0919B02F0919C02808188608083DB
:100A0000E0919B02F0919C02808180688083E0915C
:100A10009B02F0919C0280818F7D808386E30E94FF
:100A20005B0187E30E945B0188E30E945B0189E32D
:100A30000E945B018AE30E945B018BE30E945B01E1
:100A40008CE30E945B018DE30E945B0160E086E322
:100A50000E94EE0260E087E30E94EE0260E088E31D
:100A60000E94EE0260E089E30E94EE0260E08AE309
:100A70000E94EE0260E08BE30E94EE0260E08CE3F5
:100A80000E94EE0260E08DE30E94EE0289E892E0AF
:100A90000E941802181619060CF05CC11A821982FD
:100AA0001C821B821E821D8270E060E0CE010196D6
:100AB0000E948F0329813A8181112EC021153105B1
:100AC00019F0C9010E947E071A8219821E821D82B6
:100AD0001C821B820E94CA0197FD26C08A309105A4
:100AE00019F18F8318860D811E810F5F1F4FB8018A
:100AF000CE0101960E948F03882361F329813A81F8
:100B00008D819E81BE01695F7F4F820F931F0E947E
:100B1000FA081E830D83DECF1E821D8262E272E020
:100B2000C9010E94FA08D6CF68E172E0CE010196B1
:100B30000E947A03882321F061E086E30E94EE029E
:100B40006DE172E0CE0101960E947A03882321F0C4
:100B500060E086E30E94EE0263E272E0CE0101965D
:100B60000E947A03882321F061E087E30E94EE026D
:100B700068E272E0CE0101960E947A03882321F098
:100B800060E087E30E94EE026EE272E0CE01019621
:100B90000E947A03882321F061E088E30E94EE023C
:100BA00063E372E0CE0101960E947A03882321F06C
:100BB00060E088E30E94EE0269E372E0CE010196F4
:100BC0000E947A03882321F061E089E30E94EE020B
:100BD0006EE372E0CE0101960E947A03882321F031
:100BE00060E089E30E94EE0264E472E0CE010196C7
:100BF0000E947A03882321F061E08AE30E94EE02DA
:100C000069E472E0CE0101960E947A03882321F004
:100C100060E08AE30E94EE026FE472E0CE0101968A
:100C20000E947A03882321F061E08BE30E94EE02A8
:100C300064E572E0CE0101960E947A03882321F0D8
:100C400060E08BE30E94EE026AE572E0CE0101965D
:100C50000E947A03882321F061E08CE30E94EE0277
:100C60006FE572E0CE0101960E947A03882321F09D
:100C700060E08CE30E94EE0265E672E0CE01019630
:100C80000E947A03882321F061E08DE30E94EE0246
:100C90006AE672E0CE0101960E947A03882321F071
:100CA00060E08DE30E94EE0260E772E0CE01019603
:100CB0000E947A03882301F161E086E30E94EE023C
:100CC00061E087E30E94EE0261E088E30E94EE02A9
:100CD00061E089E30E94EE0261E08AE30E94EE0295
:100CE00061E08BE30E94EE0261E08CE30E94EE0281
:100CF00061E08DE30E94EE0267E772E0CE010196AB
:100D00000E947A03882301F160E086E30E94EE02EC
:100D100060E087E30E94EE0260E088E30E94EE025A
:100D200060E089E30E94EE0260E08AE30E94EE0246
:100D300060E08BE30E94EE0260E08CE30E94EE0232
:100D400060E08DE30E94EE0289819A81009711F0A4
:100D50000E947E070E94BD0299CEE9E8F2E013826C
:100D6000128288EE93E0A0E0B0E084839583A683AE
:100D7000B7838AE092E09183808385EC90E0958749
:100D8000848784EC90E09787868780EC90E0918B55
:100D9000808B81EC90E0938B828B82EC90E0958B42
:100DA000848B86EC90E0978B868B118E128E138E3F
:100DB000148E0895EE0FFF1F881F8BBF0790F691CA
:100DC000E02D19940F931F93CF93DF9382309105F9
:100DD00010F482E090E0E0912803F091290330E0E4
:100DE00020E0B0E0A0E0309799F42115310509F436
:100DF0004AC0281B390B24303105D8F58A819B81E4
:100E00006115710589F1FB0193838283FE0111C095
:100E1000408151810281138148175907E0F048173A
:100E2000590799F4109761F012960C931297139644
:100E30001C933296CF01DF91CF911F910F910895AE
:100E40000093280310932903F4CF2115310551F0A5
:100E50004217530738F0A901DB019A01BD01DF01F8
:100E6000F801C1CFEF01F9CF9093290380932803B4
:100E7000CDCFFE01E20FF31F8193919322503109F0
:100E800039832883D7CF2091260330912703232B42
:100E900041F4209102023091030230932703209302
:100EA000260320910002309101022115310541F401
:100EB0002DB73EB74091040250910502241B350B1B
:100EC000E0912603F0912703E217F307A0F42E1B0D
:100ED0003F0B2817390778F0AC014E5F5F4F24179E
:100EE000350748F04E0F5F1F5093270340932603AA
:100EF000819391939FCFF0E0E0E09CCFCF93DF937D
:100F00000097E9F0FC01329713821282A091280326
:100F1000B0912903ED0130E020E01097A1F4208189
:100F20003181820F931F20912603309127032817C8
:100F3000390709F061C0F0932703E0932603DF919E
:100F4000CF910895EA01CE17DF07E8F54A815B816A
:100F50009E0141155105B1F7E901FB83EA834991EF
:100F60005991C40FD51FEC17FD0761F48081918161
:100F70000296840F951FE90199838883828193816A
:100F80009B838A83F0E0E0E012968D919C91139709
:100F90000097B9F52D913C911197CD010296820FE2
:100FA000931F20912603309127032817390739F61C
:100FB000309751F51092290310922803B09327031C
:100FC000A0932603BCCFD383C28340815181840F79
:100FD000951FC817D90761F44E5F5F4F88819981CB
:100FE000480F591F518340838A819B819383828359
:100FF0002115310509F0B0CFF0932903E0932803C0
:101000009ECFFD01DC01C0CF13821282D7CF4F9259
:101010005F926F927F928F929F92AF92BF92CF9288
:10102000DF92EF92FF920F931F93CF93DF938C0188
:10103000009799F4CB01DF91CF911F910F91FF9011
:10104000EF90DF90CF90BF90AF909F908F907F9068
:101050006F905F904F900C94E206FC01E60FF71F33
:101060009C0122503109E217F30708F4AEC0D90100
:10107000CD91DC911197C617D70720F1C530D10566
:1010800078F0CE0104978617970750F0C61BD70B50
:101090002297C193D1936D937C93CF010E947E07D9
:1010A000C801DF91CF911F910F91FF90EF90DF90DA
:1010B000CF90BF90AF909F908F907F906F905F90F8
:1010C0004F9008955B01AC1ABD0A4C018C0E9D1E19
:1010D000A0912803B0912903512C412CF12CE12C33
:1010E000109731F580912603909127038815990573
:1010F00009F05CC04616570608F058C080910002FF
:1011000090910102009741F48DB79EB7409104027F
:1011100050910502841B950BE817F90708F055C09C
:10112000F0932703E0932603F90171836083B8CF1E
:101130008D919C91119712966C90129713967C90BA
:101140001397A815B90559F56C0142E0C40ED11CDE
:10115000CA14DB0420F1AC014A195B09DA011296CA
:10116000159780F06282738251834083D9016D9319
:101170007C93E114F10471F0D7011396FC93EE9384
:1011800012978ECF22968C0F9D1FF9019183808339
:10119000F301EFCFF0932903E093280381CF4816A2
:1011A000590608F42C017D01D3019ACFCB010E948E
:1011B000E2067C01009749F0AE01B8010E94E80800
:1011C000C8010E947E0787016BCF10E000E068CF66
:1011D000FB01DC0102C001900D9241505040D8F754
:1011E0000895FB01DC018D91019080190110D9F364
:1011F000990B0895FB01DC0101900D920020E1F7AD
:061200000895F894FFCFF1
:1012060000002A0380000000000050027A01A701B6
:101216009D021802B6010A026F6E5F31006F6666A4
:101226005F31006F6E5F32006F66665F32006F6E11
:101236005F33006F66665F33006F6E5F34006F6604
:10124600665F34006F6E5F35006F66665F35006FF0
:101256006E5F36006F66665F36006F6E5F37006FD3
:1012660066665F37006F6E5F38006F66665F3800D0
:101276006F6E5F616C6C006F66665F616C6C000020
:00000001FF
